{
  "transactions": [
    {
      "hash": "0x0bf8962d770160ac3a2888a788a221ac7b7d5b59c3bf05fb515afd955600a8e1",
      "transactionType": "CALL",
      "contractName": null,
      "contractAddress": "0x31d0220469e10c4e71834a79b1f276d740d3768f",
      "function": "approve(address,uint256)",
      "arguments": [
        "0x000000000022D473030F116dDEE9F6B43aC78BA3",
        "115792089237316195423570985008687907853269984665640564039457584007913129639935"
      ],
      "transaction": {
        "from": "0xe6d029c4c6e9c60ad0e49d92c850cd8d3e6c394a",
        "to": "0x31d0220469e10c4e71834a79b1f276d740d3768f",
        "gas": "0xdca8",
        "value": "0x0",
        "input": "0x095ea7b3000000000000000000000000000000000022d473030f116ddee9f6b43ac78ba3ffffffffffffffffffffffffffffffffffffffffffffffffffffffffffffffff",
        "nonce": "0x98",
        "chainId": "0x515"
      },
      "additionalContracts": [],
      "isFixedGasLimit": false
    },
    {
      "hash": "0x3e452f261453db4aba174518ff938a0120a6d3d1eae8c5a97a2bc98bf805cba3",
      "transactionType": "CALL",
      "contractName": null,
      "contractAddress": "0x4779f177d595ad1dee69034a58a668fc6116af96",
      "function": "approveTokenWithPermit2(address,uint160,uint48)",
      "arguments": [
        "0x31d0220469e10c4E71834a79b1f276d740d3768F",
        "2000000",
        "1746561090"
      ],
      "transaction": {
        "from": "0xe6d029c4c6e9c60ad0e49d92c850cd8d3e6c394a",
        "to": "0x4779f177d595ad1dee69034a58a668fc6116af96",
        "gas": "0x1ddb9",
        "value": "0x0",
        "input": "0x267b14bd00000000000000000000000031d0220469e10c4e71834a79b1f276d740d3768f00000000000000000000000000000000000000000000000000000000001e848000000000000000000000000000000000000000000000000000000000681a6842",
        "nonce": "0x99",
        "chainId": "0x515"
      },
      "additionalContracts": [],
      "isFixedGasLimit": false
    },
    {
      "hash": "0xaadf032767197d13d35d357df6a4fb962b7efd3b792c717e1394c49bf3de4acf",
      "transactionType": "CALL",
      "contractName": null,
      "contractAddress": "0x31d0220469e10c4e71834a79b1f276d740d3768f",
      "function": "transfer(address,uint256)",
      "arguments": [
        "0x4779F177d595ad1Dee69034a58A668fc6116aF96",
        "1000000"
      ],
      "transaction": {
        "from": "0xe6d029c4c6e9c60ad0e49d92c850cd8d3e6c394a",
        "to": "0x31d0220469e10c4e71834a79b1f276d740d3768f",
        "gas": "0x14f5f",
        "value": "0x0",
        "input": "0xa9059cbb0000000000000000000000004779f177d595ad1dee69034a58a668fc6116af9600000000000000000000000000000000000000000000000000000000000f4240",
        "nonce": "0x9a",
        "chainId": "0x515"
      },
      "additionalContracts": [],
      "isFixedGasLimit": false
    },
    {
      "hash": "0xf025ea94bca6ca0b322cb52716326de825242146206385107666942d597647a6",
      "transactionType": "CALL",
      "contractName": null,
      "contractAddress": "0x4779f177d595ad1dee69034a58a668fc6116af96",
      "function": "swapExactInputSingle((address,address,uint24,int24,address),bool,uint128,uint128)",
      "arguments": [
        "(0x31d0220469e10c4E71834a79b1f276d740d3768F, 0xdCA0423d8a8b0e6c9d7756C16Ed73f36f1BadF54, 8388608, 60, 0xEC67C9D1145aBb0FBBc791B657125718381DBa80)",
        "true",
        "1000000",
        "0"
      ],
      "transaction": {
        "from": "0xe6d029c4c6e9c60ad0e49d92c850cd8d3e6c394a",
        "to": "0x4779f177d595ad1dee69034a58a668fc6116af96",
        "gas": "0x4126e",
        "value": "0x0",
        "input": "0xeca3adf500000000000000000000000031d0220469e10c4e71834a79b1f276d740d3768f000000000000000000000000dca0423d8a8b0e6c9d7756c16ed73f36f1badf540000000000000000000000000000000000000000000000000000000000800000000000000000000000000000000000000000000000000000000000000000003c000000000000000000000000ec67c9d1145abb0fbbc791b657125718381dba80000000000000000000000000000000000000000000000000000000000000000100000000000000000000000000000000000000000000000000000000000f42400000000000000000000000000000000000000000000000000000000000000000",
        "nonce": "0x9b",
        "chainId": "0x515"
      },
      "additionalContracts": [],
      "isFixedGasLimit": false
    },
    {
      "hash": "0xe3fd3d89f0f149b2c1e1dacb9e7a0086d191ecaa9313bb01094b2709a967fc44",
      "transactionType": "CALL",
      "contractName": null,
      "contractAddress": "0x31d0220469e10c4e71834a79b1f276d740d3768f",
      "function": "transfer(address,uint256)",
      "arguments": [
        "0x4779F177d595ad1Dee69034a58A668fc6116aF96",
        "1000000"
      ],
      "transaction": {
        "from": "0xe6d029c4c6e9c60ad0e49d92c850cd8d3e6c394a",
        "to": "0x31d0220469e10c4e71834a79b1f276d740d3768f",
        "gas": "0x14f5f",
        "value": "0x0",
        "input": "0xa9059cbb0000000000000000000000004779f177d595ad1dee69034a58a668fc6116af9600000000000000000000000000000000000000000000000000000000000f4240",
        "nonce": "0x9c",
        "chainId": "0x515"
      },
      "additionalContracts": [],
      "isFixedGasLimit": false
    },
    {
      "hash": "0x596f58c79f959d4edad86c8a813725037794866784d18df4a8b650ecb416d63a",
      "transactionType": "CALL",
      "contractName": null,
      "contractAddress": "0x4779f177d595ad1dee69034a58a668fc6116af96",
      "function": "swapExactInput(address,(address,uint24,int24,address,bytes)[],uint128,uint128)",
      "arguments": [
        "0x31d0220469e10c4E71834a79b1f276d740d3768F",
        "[(0xdCA0423d8a8b0e6c9d7756C16Ed73f36f1BadF54, 8388608, 60, 0xEC67C9D1145aBb0FBBc791B657125718381DBa80, 0x), (0x0000000000000000000000000000000000000000, 8388608, 60, 0xEC67C9D1145aBb0FBBc791B657125718381DBa80, 0x)]",
        "1000000",
        "0"
      ],
      "transaction": {
        "from": "0xe6d029c4c6e9c60ad0e49d92c850cd8d3e6c394a",
        "to": "0x4779f177d595ad1dee69034a58a668fc6116af96",
        "gas": "0x40239",
        "value": "0x0",
        "input": "0xf67b956400000000000000000000000031d0220469e10c4e71834a79b1f276d740d3768f000000000000000000000000000000000000000000000000000000000000008000000000000000000000000000000000000000000000000000000000000f42400000000000000000000000000000000000000000000000000000000000000000000000000000000000000000000000000000000000000000000000000000000200000000000000000000000000000000000000000000000000000000000000400000000000000000000000000000000000000000000000000000000000000100000000000000000000000000dca0423d8a8b0e6c9d7756c16ed73f36f1badf540000000000000000000000000000000000000000000000000000000000800000000000000000000000000000000000000000000000000000000000000000003c000000000000000000000000ec67c9d1145abb0fbbc791b657125718381dba8000000000000000000000000000000000000000000000000000000000000000a0000000000000000000000000000000000000000000000000000000000000000000000000000000000000000000000000000000000000000000000000000000000000000000000000000000000000000000000000000000000000000000800000000000000000000000000000000000000000000000000000000000000000003c000000000000000000000000ec67c9d1145abb0fbbc791b657125718381dba8000000000000000000000000000000000000000000000000000000000000000a00000000000000000000000000000000000000000000000000000000000000000",
        "nonce": "0x9d",
        "chainId": "0x515"
      },
      "additionalContracts": [],
      "isFixedGasLimit": false
    }
  ],
  "receipts": [
    {
      "status": "0x1",
      "cumulativeGasUsed": "0x267a4",
      "logs": [
        {
          "address": "0x31d0220469e10c4e71834a79b1f276d740d3768f",
          "topics": [
            "0x8c5be1e5ebec7d5bd14f71427d1e84f3dd0314c0f7b2291e5b200ac8c7c3b925",
            "0x000000000000000000000000e6d029c4c6e9c60ad0e49d92c850cd8d3e6c394a",
            "0x000000000000000000000000000000000022d473030f116ddee9f6b43ac78ba3"
          ],
          "data": "0xffffffffffffffffffffffffffffffffffffffffffffffffffffffffffffffff",
          "blockHash": "0xb21dff38330dd6fe9248d524f04444f5cf73d6ffca59bb17f5f08d6c0423688e",
          "blockNumber": "0x12cacf3",
          "transactionHash": "0x0bf8962d770160ac3a2888a788a221ac7b7d5b59c3bf05fb515afd955600a8e1",
          "transactionIndex": "0x4",
          "logIndex": "0x1",
          "removed": false
        }
      ],
      "logsBloom": "0x00000000000000000000000000000000000000000000000000200000000000000000000000000000000000000000000000000000800000000000000000200000000000000000000000004000000000000000000000001800000000000000000000000000000000000000000000000000000000000000000000000000000000000000000000000000000000000000000000000000000000000000000000000000020000000001000080000000000000000000000000000000000000000000000000000000000000000000000000000000000000000000080000000000000000000010000000000000000000000000000008000000000000000000000000000000",
      "type": "0x2",
      "transactionHash": "0x0bf8962d770160ac3a2888a788a221ac7b7d5b59c3bf05fb515afd955600a8e1",
      "transactionIndex": "0x4",
      "blockHash": "0xb21dff38330dd6fe9248d524f04444f5cf73d6ffca59bb17f5f08d6c0423688e",
      "blockNumber": "0x12cacf3",
      "gasUsed": "0x96e1",
      "effectiveGasPrice": "0x1894c",
      "from": "0xe6d029c4c6e9c60ad0e49d92c850cd8d3e6c394a",
      "to": "0x31d0220469e10c4e71834a79b1f276d740d3768f",
      "contractAddress": null,
      "l1BaseFeeScalar": "0x7d0",
      "l1BlobBaseFee": "0x1",
      "l1BlobBaseFeeScalar": "0xdbba0",
      "l1Fee": "0xcb9b26d6",
      "l1GasPrice": "0x3fa07c07",
      "l1GasUsed": "0x640"
    },
    {
      "status": "0x1",
      "cumulativeGasUsed": "0x3c182",
      "logs": [
        {
          "address": "0x31d0220469e10c4e71834a79b1f276d740d3768f",
          "topics": [
            "0x8c5be1e5ebec7d5bd14f71427d1e84f3dd0314c0f7b2291e5b200ac8c7c3b925",
            "0x0000000000000000000000004779f177d595ad1dee69034a58a668fc6116af96",
            "0x000000000000000000000000000000000022d473030f116ddee9f6b43ac78ba3"
          ],
          "data": "0xffffffffffffffffffffffffffffffffffffffffffffffffffffffffffffffff",
          "blockHash": "0xb21dff38330dd6fe9248d524f04444f5cf73d6ffca59bb17f5f08d6c0423688e",
          "blockNumber": "0x12cacf3",
          "transactionHash": "0x3e452f261453db4aba174518ff938a0120a6d3d1eae8c5a97a2bc98bf805cba3",
          "transactionIndex": "0x5",
          "logIndex": "0x2",
          "removed": false
        },
        {
          "address": "0x000000000022d473030f116ddee9f6b43ac78ba3",
          "topics": [
            "0xda9fa7c1b00402c17d0161b249b1ab8bbec047c5a52207b9c112deffd817036b",
            "0x0000000000000000000000004779f177d595ad1dee69034a58a668fc6116af96",
            "0x00000000000000000000000031d0220469e10c4e71834a79b1f276d740d3768f",
            "0x000000000000000000000000f70536b3bcc1bd1a972dc186a2cf84cc6da6be5d"
          ],
          "data": "0x00000000000000000000000000000000000000000000000000000000001e848000000000000000000000000000000000000000000000000000000000681a6842",
          "blockHash": "0xb21dff38330dd6fe9248d524f04444f5cf73d6ffca59bb17f5f08d6c0423688e",
          "blockNumber": "0x12cacf3",
          "transactionHash": "0x3e452f261453db4aba174518ff938a0120a6d3d1eae8c5a97a2bc98bf805cba3",
          "transactionIndex": "0x5",
          "logIndex": "0x3",
          "removed": false
        }
      ],
      "logsBloom": "0x00010000000000000000000000000000000000000020000000000000000000000000000000000080000000000000000000000000810000000000000000280000000000800000000000004000000000000000000000001800000000000000000000000000000000000000400000000000000000000000000000000000000000000020000000000000000000000000000000000000000000000000000100000000020000000001000080000000000000000000000000000000000000080000002000000000000000008000000000000000000000000000000040000000000000000010000000001000000000000000000000000000000000000000000000000400",
      "type": "0x2",
      "transactionHash": "0x3e452f261453db4aba174518ff938a0120a6d3d1eae8c5a97a2bc98bf805cba3",
      "transactionIndex": "0x5",
      "blockHash": "0xb21dff38330dd6fe9248d524f04444f5cf73d6ffca59bb17f5f08d6c0423688e",
      "blockNumber": "0x12cacf3",
      "gasUsed": "0x159de",
      "effectiveGasPrice": "0x1894c",
      "from": "0xe6d029c4c6e9c60ad0e49d92c850cd8d3e6c394a",
      "to": "0x4779f177d595ad1dee69034a58a668fc6116af96",
      "contractAddress": null,
      "l1BaseFeeScalar": "0x7d0",
      "l1BlobBaseFee": "0x1",
      "l1BlobBaseFeeScalar": "0xdbba0",
      "l1Fee": "0xcb9b26d6",
      "l1GasPrice": "0x3fa07c07",
      "l1GasUsed": "0x640"
    },
    {
      "status": "0x1",
      "cumulativeGasUsed": "0x4b451",
      "logs": [
        {
          "address": "0x31d0220469e10c4e71834a79b1f276d740d3768f",
          "topics": [
            "0xddf252ad1be2c89b69c2b068fc378daa952ba7f163c4a11628f55a4df523b3ef",
            "0x000000000000000000000000e6d029c4c6e9c60ad0e49d92c850cd8d3e6c394a",
            "0x0000000000000000000000004779f177d595ad1dee69034a58a668fc6116af96"
          ],
          "data": "0x00000000000000000000000000000000000000000000000000000000000f4240",
          "blockHash": "0xb21dff38330dd6fe9248d524f04444f5cf73d6ffca59bb17f5f08d6c0423688e",
          "blockNumber": "0x12cacf3",
          "transactionHash": "0xaadf032767197d13d35d357df6a4fb962b7efd3b792c717e1394c49bf3de4acf",
          "transactionIndex": "0x6",
          "logIndex": "0x4",
          "removed": false
        }
      ],
      "logsBloom": "0x00000000000000000000000000000000000000000020000000200000000000000000000000000000000000000000000000000000000000000000000000000000000000000000000000000008000000000000000000001000000000000000000000000000000000000000400000000000000000000000000000000010000000000000000000000000000000000000000000000000000000000000000000000000000000000001000080000000000000000000000000000000000000000000002000000002000000000000000000000000000000000000080000000000000000000000000000000000000000000000000008000000000000000000000000000000",
      "type": "0x2",
      "transactionHash": "0xaadf032767197d13d35d357df6a4fb962b7efd3b792c717e1394c49bf3de4acf",
      "transactionIndex": "0x6",
      "blockHash": "0xb21dff38330dd6fe9248d524f04444f5cf73d6ffca59bb17f5f08d6c0423688e",
      "blockNumber": "0x12cacf3",
      "gasUsed": "0xf2cf",
      "effectiveGasPrice": "0x1894c",
      "from": "0xe6d029c4c6e9c60ad0e49d92c850cd8d3e6c394a",
      "to": "0x31d0220469e10c4e71834a79b1f276d740d3768f",
      "contractAddress": null,
      "l1BaseFeeScalar": "0x7d0",
      "l1BlobBaseFee": "0x1",
      "l1BlobBaseFeeScalar": "0xdbba0",
      "l1Fee": "0xcb9b26d6",
      "l1GasPrice": "0x3fa07c07",
      "l1GasUsed": "0x640"
    },
    {
      "status": "0x1",
      "cumulativeGasUsed": "0x7a705",
      "logs": [
        {
          "address": "0x00b036b58a818b1bc34d502d3fe730db729e62ac",
          "topics": [
            "0x40e9cecb9f5f1f1c5b9c97dec2917b7ee92e57ba5563708daca94dd84ad7112f",
            "0x6c6a68db65ba31c8ff973146d6b2bfa54ba95d4d569f242f5110ef16b18b6d71",
            "0x000000000000000000000000f70536b3bcc1bd1a972dc186a2cf84cc6da6be5d"
          ],
          "data": "0xfffffffffffffffffffffffffffffffffffffffffffffffffffffffffff0bdc00000000000000000000000000000000000000000000000000dbf9fe9478afbbd00000000000000000000000000000000000f3150971c1bba5c7a5c901aef3f030000000000000000000000000000000000000000000000000000cfd439fe8d4b000000000000000000000000000000000000000000000000000000000004370d0000000000000000000000000000000000000000000000000000000000001388",
          "blockHash": "0xb21dff38330dd6fe9248d524f04444f5cf73d6ffca59bb17f5f08d6c0423688e",
          "blockNumber": "0x12cacf3",
          "transactionHash": "0xf025ea94bca6ca0b322cb52716326de825242146206385107666942d597647a6",
          "transactionIndex": "0x7",
          "logIndex": "0x5",
          "removed": false
        },
        {
          "address": "0x31d0220469e10c4e71834a79b1f276d740d3768f",
          "topics": [
            "0xddf252ad1be2c89b69c2b068fc378daa952ba7f163c4a11628f55a4df523b3ef",
            "0x0000000000000000000000004779f177d595ad1dee69034a58a668fc6116af96",
            "0x00000000000000000000000000b036b58a818b1bc34d502d3fe730db729e62ac"
          ],
          "data": "0x00000000000000000000000000000000000000000000000000000000000f4240",
          "blockHash": "0xb21dff38330dd6fe9248d524f04444f5cf73d6ffca59bb17f5f08d6c0423688e",
          "blockNumber": "0x12cacf3",
          "transactionHash": "0xf025ea94bca6ca0b322cb52716326de825242146206385107666942d597647a6",
          "transactionIndex": "0x7",
          "logIndex": "0x6",
          "removed": false
        },
        {
          "address": "0xdca0423d8a8b0e6c9d7756c16ed73f36f1badf54",
          "topics": [
            "0xddf252ad1be2c89b69c2b068fc378daa952ba7f163c4a11628f55a4df523b3ef",
            "0x00000000000000000000000000b036b58a818b1bc34d502d3fe730db729e62ac",
            "0x0000000000000000000000004779f177d595ad1dee69034a58a668fc6116af96"
          ],
          "data": "0x0000000000000000000000000000000000000000000000000dbf9fe9478afbbd",
          "blockHash": "0xb21dff38330dd6fe9248d524f04444f5cf73d6ffca59bb17f5f08d6c0423688e",
          "blockNumber": "0x12cacf3",
          "transactionHash": "0xf025ea94bca6ca0b322cb52716326de825242146206385107666942d597647a6",
          "transactionIndex": "0x7",
          "logIndex": "0x7",
          "removed": false
        }
      ],
      "logsBloom": "0x00000000000000000000000000000000000000000020000000000000000000000000000000000000000000000000000000000000051000000000000000000000000000800000000000000008000000000000000000001020400000000000000000000000000000000010400000004000000000000000080000000010000000000000000000000000000000000008000000000000000000000000000100000000000000000001000080000000000000000000000000000020000000000000002000000002000000000000001000000000000000000000000000000000000000000000000000000000004000000000000000000000000002000000000000060010",
      "type": "0x2",
      "transactionHash": "0xf025ea94bca6ca0b322cb52716326de825242146206385107666942d597647a6",
      "transactionIndex": "0x7",
      "blockHash": "0xb21dff38330dd6fe9248d524f04444f5cf73d6ffca59bb17f5f08d6c0423688e",
      "blockNumber": "0x12cacf3",
      "gasUsed": "0x2f2b4",
      "effectiveGasPrice": "0x1894c",
      "from": "0xe6d029c4c6e9c60ad0e49d92c850cd8d3e6c394a",
      "to": "0x4779f177d595ad1dee69034a58a668fc6116af96",
      "contractAddress": null,
      "l1BaseFeeScalar": "0x7d0",
      "l1BlobBaseFee": "0x1",
      "l1BlobBaseFeeScalar": "0xdbba0",
      "l1Fee": "0x13105617f",
      "l1GasPrice": "0x3fa07c07",
      "l1GasUsed": "0x95c"
    },
    {
      "status": "0x1",
      "cumulativeGasUsed": "0x899d4",
      "logs": [
        {
          "address": "0x31d0220469e10c4e71834a79b1f276d740d3768f",
          "topics": [
            "0xddf252ad1be2c89b69c2b068fc378daa952ba7f163c4a11628f55a4df523b3ef",
            "0x000000000000000000000000e6d029c4c6e9c60ad0e49d92c850cd8d3e6c394a",
            "0x0000000000000000000000004779f177d595ad1dee69034a58a668fc6116af96"
          ],
          "data": "0x00000000000000000000000000000000000000000000000000000000000f4240",
          "blockHash": "0xb21dff38330dd6fe9248d524f04444f5cf73d6ffca59bb17f5f08d6c0423688e",
          "blockNumber": "0x12cacf3",
          "transactionHash": "0xe3fd3d89f0f149b2c1e1dacb9e7a0086d191ecaa9313bb01094b2709a967fc44",
          "transactionIndex": "0x8",
          "logIndex": "0x8",
          "removed": false
        }
      ],
      "logsBloom": "0x00000000000000000000000000000000000000000020000000200000000000000000000000000000000000000000000000000000000000000000000000000000000000000000000000000008000000000000000000001000000000000000000000000000000000000000400000000000000000000000000000000010000000000000000000000000000000000000000000000000000000000000000000000000000000000001000080000000000000000000000000000000000000000000002000000002000000000000000000000000000000000000080000000000000000000000000000000000000000000000000008000000000000000000000000000000",
      "type": "0x2",
      "transactionHash": "0xe3fd3d89f0f149b2c1e1dacb9e7a0086d191ecaa9313bb01094b2709a967fc44",
      "transactionIndex": "0x8",
      "blockHash": "0xb21dff38330dd6fe9248d524f04444f5cf73d6ffca59bb17f5f08d6c0423688e",
      "blockNumber": "0x12cacf3",
      "gasUsed": "0xf2cf",
      "effectiveGasPrice": "0x1894c",
      "from": "0xe6d029c4c6e9c60ad0e49d92c850cd8d3e6c394a",
      "to": "0x31d0220469e10c4e71834a79b1f276d740d3768f",
      "contractAddress": null,
      "l1BaseFeeScalar": "0x7d0",
      "l1BlobBaseFee": "0x1",
      "l1BlobBaseFeeScalar": "0xdbba0",
      "l1Fee": "0xcb9b26d6",
      "l1GasPrice": "0x3fa07c07",
      "l1GasUsed": "0x640"
    },
    {
      "status": "0x1",
      "cumulativeGasUsed": "0xb80cc",
      "logs": [
        {
          "address": "0x00b036b58a818b1bc34d502d3fe730db729e62ac",
          "topics": [
            "0x40e9cecb9f5f1f1c5b9c97dec2917b7ee92e57ba5563708daca94dd84ad7112f",
            "0x6c6a68db65ba31c8ff973146d6b2bfa54ba95d4d569f242f5110ef16b18b6d71",
            "0x000000000000000000000000f70536b3bcc1bd1a972dc186a2cf84cc6da6be5d"
          ],
          "data": "0xfffffffffffffffffffffffffffffffffffffffffffffffffffffffffff0bdc00000000000000000000000000000000000000000000000000da13d053054cedf00000000000000000000000000000000000f20869c1dc1460663ba3f35a9e3540000000000000000000000000000000000000000000000000000cfd439fe8d4b00000000000000000000000000000000000000000000000000000000000436b60000000000000000000000000000000000000000000000000000000000001388",
          "blockHash": "0xb21dff38330dd6fe9248d524f04444f5cf73d6ffca59bb17f5f08d6c0423688e",
          "blockNumber": "0x12cacf3",
          "transactionHash": "0x596f58c79f959d4edad86c8a813725037794866784d18df4a8b650ecb416d63a",
          "transactionIndex": "0x9",
          "logIndex": "0x9",
          "removed": false
        },
        {
          "address": "0x00b036b58a818b1bc34d502d3fe730db729e62ac",
          "topics": [
            "0x40e9cecb9f5f1f1c5b9c97dec2917b7ee92e57ba5563708daca94dd84ad7112f",
            "0x24a828a1656b22c4c5eca861ea27839a7f0fac97f45cded7af3ba481c2cf3991",
            "0x000000000000000000000000f70536b3bcc1bd1a972dc186a2cf84cc6da6be5d"
          ],
          "data": "0x00000000000000000000000000000000000000000000000000020a35ef64c4fbfffffffffffffffffffffffffffffffffffffffffffffffff25ec2facfab3121000000000000000000000000000000000000002947490eab525a130edd1af2aa0000000000000000000000000000000000000000000000011e19119b53c6e8f500000000000000000000000000000000000000000000000000000000000122aa0000000000000000000000000000000000000000000000000000000000001388",
          "blockHash": "0xb21dff38330dd6fe9248d524f04444f5cf73d6ffca59bb17f5f08d6c0423688e",
          "blockNumber": "0x12cacf3",
          "transactionHash": "0x596f58c79f959d4edad86c8a813725037794866784d18df4a8b650ecb416d63a",
          "transactionIndex": "0x9",
          "logIndex": "0xa",
          "removed": false
        },
        {
          "address": "0x31d0220469e10c4e71834a79b1f276d740d3768f",
          "topics": [
            "0xddf252ad1be2c89b69c2b068fc378daa952ba7f163c4a11628f55a4df523b3ef",
            "0x0000000000000000000000004779f177d595ad1dee69034a58a668fc6116af96",
            "0x00000000000000000000000000b036b58a818b1bc34d502d3fe730db729e62ac"
          ],
          "data": "0x00000000000000000000000000000000000000000000000000000000000f4240",
          "blockHash": "0xb21dff38330dd6fe9248d524f04444f5cf73d6ffca59bb17f5f08d6c0423688e",
          "blockNumber": "0x12cacf3",
          "transactionHash": "0x596f58c79f959d4edad86c8a813725037794866784d18df4a8b650ecb416d63a",
          "transactionIndex": "0x9",
          "logIndex": "0xb",
          "removed": false
        }
      ],
      "logsBloom": "0x00000000000000000000000000000000000000000020000000000000000000000000000000000000000000000000000000000000051000000000000000000000000000800000000000000008000000000004000000005020000000000000000000000000000000000010400000004000000000000000000000000010000000000000000000020000000000000008000000000000000000000000000100000000000000000001000080000000000000000000000000000020000000000000002000000002000000000000001000000000000000000000000000000000000000000000000000000000004000000000000000000000000002000000000000040010",
      "type": "0x2",
      "transactionHash": "0x596f58c79f959d4edad86c8a813725037794866784d18df4a8b650ecb416d63a",
      "transactionIndex": "0x9",
      "blockHash": "0xb21dff38330dd6fe9248d524f04444f5cf73d6ffca59bb17f5f08d6c0423688e",
      "blockNumber": "0x12cacf3",
      "gasUsed": "0x2e6f8",
      "effectiveGasPrice": "0x1894c",
      "from": "0xe6d029c4c6e9c60ad0e49d92c850cd8d3e6c394a",
      "to": "0x4779f177d595ad1dee69034a58a668fc6116af96",
      "contractAddress": null,
      "l1BaseFeeScalar": "0x7d0",
      "l1BlobBaseFee": "0x1",
      "l1BlobBaseFeeScalar": "0xdbba0",
      "l1Fee": "0x16269acf4",
      "l1GasPrice": "0x3fa07c07",
      "l1GasUsed": "0xae1"
    }
  ],
  "libraries": [],
  "pending": [],
  "returns": {},
  "timestamp": 1746557503,
  "chain": 1301,
  "commit": "52bc34c"
}